:102410000403090A0C16050800000101010102036A
:10242000001E17110D0A07050302010000001E001F
:10243000170011000D000A0007000500030002004C
:01244000019A
:101C7B008B158A168917900001120AE3AB18AA1963
:101C8B00A91A120B10AB15AA16A917900002120A6B
:101C9B00E3AB18AA19A91A90000175F000120C3DBC
:101CAB00AB15AA16A917900003120AE3FFAB18AAEB
:0C1CBB0019A91A900001E48FF0020BD16F
:101DF7008B158A168917AB18AA19A91A7480120BA2
:101E070010AB15AA16A917900001120AE3AB18AA7E
:101E170019A91A90000175F000120C3DAB15AA160E
:101E2700A917900002120AE3FFAB18AA19A91A9082
:081E37000001E48FF0020BD161
:1010AD008B158A168917900001120AE3AB18AA193D
:1010BD00A91A75F000120C1EAB15AA16A9179000EF
:1010CD0002120AE3FFAB18AA19A91AE48FF0120B4A
:1010DD0099AB15AA16A917900003120AE3AB18AA2B
:1010ED0019A91A900002120B22AB15AA16A9179076
:1010FD000004120AE3AB18AA19A91A900003120BE7
:10110D00229000047480120B22AB15AA16A9179019
:10111D000005120AE3AB18AA19A91A900005120BC3
:10112D00229000067480120B22900007E4120B220D
:10113D009000087480120B22900009E4120B22908B
:10114D00000A7480120B2290000BE4120B22900007
:10115D000C7480120B2290000DE4120B2290000EE5
:10116D007480120B2290000FE4120B229000107469
:10117D0080120B22900011E4120B22AB15AA16A9B6
:10118D0017900006120AE3AB18AA19A91A900012BB
:10119D00120B22AB15AA16A917900007120AE3AB82
:1011AD0018AA19A91A90001375F000120C3DAB1571
:1011BD00AA16A917900008120AE3FFAB18AA19A9DD
:0A11CD001A900013E48FF0020BD11A
:100F73008B158A168917900001120AE3AB18AA1978
:100F8300A91A75F000120C1EAB15AA16A91790002A
:100F930002120AE3FFAB18AA19A91AE48FF0120B85
:100FA30099AB15AA16A917900003120AE3AB18AA66
:100FB30019A91A900002120B22AB15AA16A91790B1
:100FC3000004120AE3AB18AA19A91A900003120B22
:100FD30022AB15AA16A917900005120AE3AB18AAAB
:100FE30019A91A900004120B22AB15AA16A917907F
:100FF3000006120AE3AB18AA19A91A900005120BEE
:10100300229000067480120B22900007E4120B2238
:101013009000087480120B22900009E4120B2290B6
:10102300000A7480120B2290000BE4120B22900032
:101033000C7480120B2290000DE4120B2290000E10
:101043007480120B2290000FE4120B229000107494
:1010530080120B22900011E4120B22AB15AA16A9E1
:1010630017900007120AE3AB18AA19A91A900012E5
:10107300120B22AB15AA16A917900008120AE3ABAC
:1010830018AA19A91A90001375F000120C3DAB159C
:10109300AA16A917900009120AE3FFAB18AA19A907
:0A10A3001A900013E48FF0020BD145
:100E18008B158A168917900001120AE3AB18AA19D4
:100E2800A91A75F000120C1EAB15AA16A917900086
:100E380002120AE3FFAB18AA19A91AE48FF0120BE1
:100E480099AB15AA16A917900003120AE3AB18AAC2
:100E580019A91A900002120B22AB15AA16A917900D
:100E68000004120AE3AB18AA19A91A900003120B7E
:100E780022AB15AA16A917900005120AE3AB18AA07
:100E880019A91A900004120B22AB15AA16A91790DB
:100E98000006120AE3AB18AA19A91A900005120B4A
:100EA80022AB15AA16A917900007120AE3AB18AAD5
:100EB80019A91A900006120B22AB15AA16A91790A9
:100EC8000008120AE3AB18AA19A91A900007120B16
:100ED800229000087480120B22900009E4120B2261
:100EE80090000A7480120B2290000BE4120B2290DF
:100EF800000C7480120B2290000DE4120B2290005B
:100F08000E7480120B2290000FE4120B2290001036
:100F18007480120B22900011E4120B22AB15AA1652
:100F2800A917900009120AE3AB18AA19A91A900088
:100F380012120B22AB15AA16A91790000A120AE37F
:100F4800AB18AA19A91A90001375F000120C3DAB42
:100F580015AA16A91790000B120AE3FFAB18AA19D5
:0B0F6800A91A900013E48FF0020BD1D7
:1008CA008B158A168917900001120AE3AB18AA1928
:1008DA00A91A75F000120C1EAB15AA16A9179000DA
:1008EA0002120AE3FFAB18AA19A91AE48FF0120B35
:1008FA0099AB15AA16A917900003120AE3AB18AA16
:10090A0019A91A900002120B22AB15AA16A9179060
:10091A000004120AE3AB18AA19A91A900003120BD1
:10092A0022AB15AA16A917900005120AE3AB18AA5A
:10093A0019A91A900004120B22AB15AA16A917902E
:10094A000006120AE3AB18AA19A91A900005120B9D
:10095A0022AB15AA16A917900007120AE3AB18AA28
:10096A0019A91A900006120B22AB15AA16A91790FC
:10097A000008120AE3AB18AA19A91A900007120B69
:10098A0022AB15AA16A917900009120AE3AB18AAF6
:10099A0019A91A900008120B22AB15AA16A91790CA
:1009AA00000A120AE3AB18AA19A91A900009120B35
:1009BA0022AB15AA16A91790000B120AE3AB18AAC4
:1009CA0019A91A90000A120B22AB15AA16A9179098
:1009DA00000C120AE3AB18AA19A91A90000B120B01
:1009EA0022AB15AA16A91790000D120AE3AB18AA92
:1009FA0019A91A90000C120B22AB15AA16A9179066
:100A0A00000E120AE3AB18AA19A91A90000D120BCC
:100A1A0022AB15AA16A91790000F120AE3AB18AA5F
:100A2A0019A91A90000E120B22AB15AA16A9179033
:100A3A000010120AE3AB18AA19A91A90000F120B98
:100A4A0022AB15AA16A917900011120AE3AB18AA2D
:100A5A0019A91A900010120B22AB15AA16A9179001
:100A6A000012120AE3AB18AA19A91A900011120B64
:100A7A0022AB15AA16A917900013120AE3AB18AAFB
:100A8A0019A91A900012120B22AB15AA16A91790CF
:100A9A000014120AE3AB18AA19A91A90001375F0E8
:100AAA0000120C3DAB15AA16A917900015120AE3FD
:100ABA00FFAB18AA19A91A900013E48FF0020BD100
:1019C6008B158A168917900001120AE3AB18AA191B
:1019D600A91A120B10AB15AA16A917900002120A23
:1019E600E3AB18AA19A91A900001120B22AB15AA8B
:1019F60016A917900003120AE3AB18AA19A91A90A0
:101A0600000275F000120C3DAB15AA16A91790003E
:101A160004120AE3FFAB18AA19A91A900002E48F70
:041A2600F0020BD1EE
:101389008B158A168917900001120AE3AB18AA195E
:10139900A91A75F000120C1EAB15AA16A917900010
:1013A90002120AE3FFAB18AA19A91AE48FF0120B6B
:1013B90099AB15AA16A917900003120AE3AB18AA4C
:1013C90019A91A900002120B22AB15AA16A9179097
:1013D9000004120AE3AB18AA19A91A900003120B08
:1013E90022AB15AA16A917900005120AE3AB18AA91
:1013F90019A91A900004120B22AB15AA16A9179065
:101409000006120AE3AB18AA19A91A90000575F08B
:1014190000120C3DAB15AA16A917900007120AE392
:10142900FFAB18AA19A91A900005E48FF0020BD195
:061A81008B088A09890AA6
:101A8700E4F50B750C01FFFE120ACAB4FF0122E54B
:101A97000C603AAB08AA09A90A8F828E83120AE35F
:101AA700FDC39408500EED902410932FFFE43EFEE3
:101AB700050B8003E4F50CC374209FFDE49EFCC373
:0F1AC700ED9404EC940050C7E4F50C80C2AF0B13
:011AD60022ED
:080C91008D0C8B098A0A890B06
:100C9900E4F510751201F513F514120ACAB4FF032D
:100CA9007FFF22E5127003020E15AB09AA0AA90BF0
:100CB900851482851383120AE3FEE510650C60032F
:100CC900020DCFEE90241893F511EEB408004003FD
:100CD900020DCC900CE3F8282873020CFB020D16C8
:100CE900020D31020D4C020D66020D80020D9A02B1
:100CF9000DB4AB09E50B2514F9E50A3513FA850D91
:100D090018850E19850F1A121C7B020DCCAB09E54B
:100D19000B2514F9E50A3513FA850D18850E198581
:100D29000F1A121DF7020DCCAB09E50B2514F9E5D5
:100D39000A3513FA850D18850E19850F1A1210AD8B
:100D4900020DCCAB09E50B2514F9E50A3513FA8533
:100D59000D18850E19850F1A120F738066AB09E5F8
:100D69000B2514F9E50A3513FA850D18850E198531
:100D79000F1A120E18804CAB09E50B2514F9E50A78
:100D89003513FA850D18850E19850F1A1208CA80B0
:100D990032AB09E50B2514F9E50A3513FA850D1867
:100DA900850E19850F1A1219C68018AB09E50B258E
:100DB90014F9E50A3513FA850D18850E19850F1AE8
:100DC900121389AF1122AB09AA0AA90B85148285CE
:100DD9001383120AE3FEC394085012EE9024109371
:100DE9002514F514E43513F51305108003E4F51201
:100DF900C374209514FFE49513FEC3EF9404EE9495
:0E0E0900004003020CACE4F512020CAC7FFFBB
:010E170022B8
:06000300EF90242093FFA2
:0100090022D4
:1023DE00EF247C601B14602124F560111460172417
:1023EE00FD6010146016241470157F82227FA022C7
:1023FE007F88227FA8227FA2227F8A227FAA227F25
:02240E0080222A
:10250500EF247C601B14601824F5601114601724F7
:10251500FD6010146013241470127F83227FB02293
:0F2525007F8B227FCB227FB3227FBF227F80223A
:101AD700EF14B40A00504A901AEC75F003A4C583BA
:101AE70025F0C58373021B25021B22021B1F021B45
:101AF7001C021B19021B16021B13021B10021B0DD3
:101B0700021B0A7F0A227F14227F1E227F28227F40
:101B170032227F3C227F46227F50227F5A227F64D7
:041B2700227FC8222F
:10000E00EF25E0242BF582E43424F583E493FE748B
:03001E000193FF4C
:0100210022BC
:1022C300410078FF410079FF41007AFF41007BFF25
:0C22D300015200015300015400015500AD
:04284C00AF03AE0226
:10285000D3EF9400EE9400400DE4FD0DBD37FCEF86
:062860001F70ED1E80EA6E
:01286600224F
:102768007E01EF3392910000C29200000000D292E5
:0C27780000000000EF25E0FF0EBE09E6A7
:012784002232
:102785007E01EF3392950000C29600000000D296BC
:0C27950000000000EF25E0FF0EBE09E68A
:0127A1002215
:1027A2007E01EF3392A10000C2A200000000D2A27B
:0C27B20000000000EF25E0FF0EBE09E66D
:0127BE0022F8
:1027BF007E01EF3392A50000C2A600000000D2A652
:0C27CF0000000000EF25E0FF0EBE09E650
:0127DB0022DB
:0825D0008E118F12AB05AA0465
:1025D800900001D3E5829512E5839511500DC290C4
:0B25E80012284CD29012284CA380E86F
:0125F30022C5
:0825F4008E118F12AB05AA0441
:1025FC00900001D3E5829512E5839511500DC2949C
:0B260C0012284CD29412284CA380E846
:0126170022A0
:082618008E118F12AB05AA041C
:10262000900001D3E5829512E5839511500DC2A06B
:0B26300012284CD2A012284CA380E816
:01263B00227C
:08263C008E118F12AB05AA04F8
:10264400900001D3E5829512E5839511500DC2A443
:0B26540012284CD2A412284CA380E8EE
:01265F002258
:02244100AD07E5
:10244300C29300000000E4FCAF051227680CBCFA3D
:10245300F7E4FCAF051227680CBCFAF70000000094
:0F246300D29300007D057C007F057E000225D00E
:02247200AD07B4
:10247400C29700000000E4FCAF051227850CBCFAEB
:10248400F7E4FCAF051227850CBCFAF70000000046
:0F249400D29700007D057C007F057E000225F4B5
:0224A300AD0783
:1024A500C2A300000000E4FCAF051227A20CBCFA91
:1024B500F7E4FCAF051227A20CBCFAF700000000F8
:0F24C500D2A300007D057C007F057E0002261853
:0224D400AD0752
:1024D600C2A700000000E4FCAF051227BF0CBCFA3F
:1024E600F7E4FCAF051227BF0CBCFAF700000000AA
:0F24F600D2A700007D057C007F057E0002263CFA
:1027DC00C2930000000012276800000000D2930092
:0C27EC00007D017C007F017E000225D0F2
:1027F800C2970000000012278500000000D2970051
:0C280800007D017C007F017E000225F4B1
:10281400C2A3000000001227A200000000D2A300FF
:0C282400007D017C007F017E0002261870
:10283000C2A7000000001227BF00000000D2A700BE
:0C284000007D017C007F017E0002263C30
:0222FE00A9072E
:10230000C29300000000900000E9FFC3E5829FE552
:102310008394005008AF05122768A380EC000000EA
:1023200000D29300000000E4900078F0900074F078
:0523300090007CEBF0C1
:012335002285
:101F9F00900078E0FFF4603B900074E07021EFC395
:101FAF0094FE5015900078E020E004C2908002D299
:101FBF0090900078E004F0800690007874FFF09025
:101FCF000074E004F090007CE0FF900074E0B5072F
:041FDF0002E4F02206
:0E286700900078E0B4FF047F0180027F002221
:02233600A907F5
:10233800C29700000000900000E9FFC3E5829FE516
:102348008394005008AF05122785A380EC00000095
:1023580000D29700000000E4900079F0900075F03A
:0523680090007DEBF088
:01236D00224D
:101FE300900079E0FFF4603B900075E07021EFC34F
:101FF30094FE5015900079E020E004C2948002D250
:1020030094900079E004F0800690007974FFF090DA
:102013000075E004F090007DE0FF900075E0B507E7
:0420230002E4F022C1
:0E287500900079E0B4FF047F0180027F002212
:02236E00A907BD
:10237000C2A300000000900000E9FFC3E5829FE5D2
:102380008394005008AF051227A2A380EC00000040
:1023900000D2A300000000E490007AF0900076F0F4
:0523A00090007EEBF04F
:0123A5002215
:1020270090007AE0FFF4603B900076E07021EFC308
:1020370094FE501590007AE020E004C2A08002D2FE
:10204700A090007AE004F0800690007A74FFF09088
:102057000076E004F090007EE0FF900076E0B507A0
:0420670002E4F0227D
:0E28830090007AE0B4FF047F0180027F002203
:0223A600A90785
:1023A800C2A700000000900000E9FFC3E5829FE596
:1023B8008394005008AF051227BFA380EC000000EB
:1023C80000D2A700000000E490007BF0900077F0B6
:0523D80090007FEBF016
:0123DD0022DD
:10206B0090007BE0FFF4603B900077E07021EFC3C2
:10207B0094FE501590007BE020E004C2A48002D2B5
:10208B00A490007BE004F0800690007B74FFF0903E
:10209B000077E004F090007FE0FF900077E0B50759
:0420AB0002E4F02239
:0E28910090007BE0B4FF047F0180027F0022F4
:1020AF00AC07AF0578527601C293000000001227EB
:1020BF006800000000D29300000000AF0478427661
:1020CF000008A607EB75F002A47822A6F008F6AF79
:1020DF00137856760008A607783A760008760178C6
:0420EF005276022201
:101CC7007852E664027044C3793BE778239619E7B4
:101CD7001896502D783B06E618700106783BE620EB
:101CE700E004C2908002D2907856E6FE08E6FF78BC
:101CF7002AA60608A607E4785EF608F67852760361
:0C1D07002278527604E47832F608F622C6
:102660007852E6B4031AC3795FE7782B9619E71816
:10267000965009785F06E6187006062278527602B0
:012680002237
:1021BF007852E664047039C37933E778439619E7A8
:1021CF0018965028C29300000000E4FF1227680001
:1021DF00000000D29300000000783306E61870016B
:1021EF0006E4783AF608F67852760522E47852F645
:0121FF0022BD
:101E87007852E66405703EC3793BE778239619E7F5
:101E97001896502D783B06E618700106783BE62029
:101EA700E004C2908002D2907856E6FE08E6FF78FA
:101EB7002AA60608A607E4785EF608F6785276069C
:061EC7002278527604228D
:102681007852E6B4061AC3795FE7782B9619E718F2
:10269100965009785F06E61870060622785276058C
:0126A1002216
:0C28BB007852E670047F0180027F00224A
:1020F300AC07AF0578537601C297000000001227A2
:102103008500000000D29700000000AF04784476F9
:102113000008A607EB75F002A47824A6F008F6AF32
:10212300137858760008A607783C7600087601787D
:0421330053760222BB
:101D13007853E664027044C3793DE778259619E762
:101D23001896502D783D06E618700106783DE6209A
:101D3300E004C2948002D2947858E6FE08E6FF7865
:101D43002CA60608A607E47860F608F6785376030F
:0C1D53002278537604E47834F608F62277
:1026A2007853E6B4031AC37961E7782D9619E718CF
:1026B200965009786106E61870060622785376026B
:0126C20022F5
:102200007853E664047039C37935E778459619E761
:1022100018965028C29700000000E4FF122785009E
:10222000000000D29700000000783506E618700123
:1022300006E4783CF608F67853760522E47853F6FF
:01224000227B
:101ECD007853E66405703EC3793DE778259619E7AA
:101EDD001896502D783D06E618700106783DE620DF
:101EED00E004C2948002D2947858E6FE08E6FF78AA
:101EFD002CA60608A607E47860F608F67853760651
:061F0D0022785376042245
:1026C3007853E6B4061AC37961E7782D9619E718AB
:1026D300965009786106E618700606227853760547
:0126E30022D4
:0C28C7007853E670047F0180027F00223D
:10213700AC07AF0578547601C2A300000000122750
:10214700A200000000D2A300000000AF047846768A
:102157000008A607EB75F002A47826A6F008F6AFEC
:1021670013785A760008A607783E76000876017835
:042177005476022276
:101D5F007854E664027044C3793FE778279619E711
:101D6F001896502D783F06E618700106783FE6204A
:101D7F00E004C2A08002D2A0785AE6FE08E6FF78FF
:101D8F002EA60608A607E47862F608F678547603BE
:0C1D9F002278547604E47836F608F62228
:1026E4007854E6B4031AC37963E7782F9619E71888
:1026F400965009786306E618700606227854760226
:0127040022B2
:102241007854E664047039C37937E778479619E71B
:1022510018965028C2A300000000E4FF1227A20034
:10226100000000D2A300000000783706E6187001D4
:1022710006E4783EF608F67854760522E47854F6BA
:01228100223A
:101F13007854E66405703EC3793FE778279619E75E
:101F23001896502D783F06E618700106783FE62094
:101F3300E004C2A08002D2A0785AE6FE08E6FF7849
:101F43002EA60608A607E47862F608F67854760605
:061F5300227854760422FE
:102705007854E6B4061AC37963E7782F9619E71863
:10271500965009786306E618700606227854760501
:012725002291
:0C28D3007854E670047F0180027F002230
:10217B00AC07AF0578557601C2A700000000122707
:10218B00BF00000000D2A700000000AF0478487623
:10219B000008A607EB75F002A47828A6F008F6AFA6
:1021AB0013785C760008A6077840760008760178ED
:0421BB005576022231
:101DAB007855E664027044C37941E778299619E7C0
:101DBB001896502D784106E6187001067841E620FA
:101DCB00E004C2A48002D2A4785CE6FE08E6FF78A9
:101DDB0030A60608A607E47864F608F6785576036D
:0C1DEB002278557604E47838F608F622D9
:102726007855E6B4031AC37965E778319619E71840
:10273600965009786506E6187006062278557602E0
:012746002270
:102282007855E664047039C37939E778499619E7D5
:1022920018965028C2A700000000E4FF1227BF00D2
:1022A200000000D2A700000000783906E61870018D
:1022B20006E47840F608F67855760522E47855F675
:0122C20022F9
:101F59007855E66405703EC37941E778299619E713
:101F69001896502D784106E6187001067841E6204A
:101F7900E004C2A48002D2A4785CE6FE08E6FF78F9
:101F890030A60608A607E47864F608F678557606BA
:061F9900227855760422B7
:102747007855E6B4061AC37965E778319619E7181C
:10275700965009786506E6187006062278557605BC
:01276700224F
:0C28DF007855E670047F0180027F002223
:1022DF004100700041007100410072004100730025
:10253400C200E4900000F0A3F0D204900018E0245C
:10254400FD60042402700F90001CE0FFA3E09000E3
:072554000BCFF0A3EFF02212
:10255B00C201E4900002F0A3F0D205900019E02430
:10256B00FD60042402700F900031E0FFA3E09000A7
:07257B000ECFF0A3EFF022E8
:10258200C202E4900004F0A3F0D20690001AE02404
:10259200FD60042402700F900046E0FFA3E090006B
:0725A20010CFF0A3EFF022BF
:1025A900C203E4900006F0A3F0D20790001BE024D8
:1025B900FD60042402700F90005BE0FFA3E090002F
:0725C90012CFF0A3EFF02296
:0E289F0020000A90001CE0FF122441D200220B
:10003E00900021E0FF90001FE02FFFE433FE9000C0
:10004E0023E07C002FFFEC3EFE900025E02FFFEC1E
:10005E003EFE900027E02FFFEC3EFE900029E02FA1
:10006E00FFEC3EFE90002BE02FFFEC3EFE90002DAD
:10007E00E02FF50EEC3EF50DC3E50E9401E50D9463
:10008E0000500302026090002EE0FF120003EF709A
:10009E0003020260EFFD7C00900000E0FEA3E0FF93
:1000AE00120B44ED4C600302026090000BE0FEA3C5
:0D00BE00E0FF4E7002D20020000302023C61
:1000CB00E50E2FCFE50D3ECF24FFCF34FFFEAC0D59
:1000DB00AD0E120B448C0F8D1090002BE0FF900097
:1000EB002DE02FFFE433FE900029E07C002FFFEC86
:1000FB003EFE900027E02FFFEC3EFE900025E02F08
:10010B00FFEC3EFE900023E02FFFEC3EFE90002123
:10011B00E02FFFEC3EFEC3E5109FE50F9E400690DF
:10012B00001E02023790002BE0FF90002DE02FFF06
:10013B00E433FE900029E07C002FFFEC3EFE9000A4
:10014B0027E02FFFEC3EFE900025E02FFFEC3EFE5C
:10015B00900023E02FFFEC3EFEC3E5109FE50F9EC2
:10016B00400690002002023790002BE0FF90002DFC
:10017B00E02FFFE433FE900029E07C002FFFEC3EE4
:10018B00FE900027E02FFFEC3EFE900025E02FFFB6
:10019B00EC3EFEC3E5109FE50F9E40069000220249
:1001AB00023790002BE0FF90002DE02FFFE433FE91
:1001BB00900029E07C002FFFEC3EFE900027E02F03
:1001CB00FFEC3EFEC3E5109FE50F9E40059000241B
:1001DB00805A90002BE0FF90002DE02FFFE433FEC0
:1001EB00900029E07C002FFFEC3EFEC3E5109FE55D
:1001FB000F9E4005900026803390002BE0FF90006F
:10020B002DE02FFFE433FEC3E5109FE50F9E400565
:10021B00900028801790002DE0FFC3E5109FE50F9D
:10022B009400400590002A800390002CE0FF1227D9
:01023B00DCE6
:10023C0090000CE024FFF090000BE034FFF0E0B4F1
:10024C00FF12A3E0B4FF0DE50E24FFF0E50D34FF23
:04025C0090000BF013
:01026000227B
:101B2B0090001CE0F50DA3E0F50E122867EF604363
:101B3B00900070E0D394004004E014F022AF0D301D
:101B4B0004161223DEC007AF0E121AD7AB07D0054F
:101B5B007FFF1222FEC20422122505C007AF0E1210
:101B6B001AD7AB07D0057FFF1222FED2049000706C
:031B7B007402F001
:011B7E002244
:1017A60090001EE0F50DA3E0F50EA3E0F50F900006
:1017B6002EE0FF120003EF606EEFFD7C009000004C
:1017C600E0FEA3E0FF120B44ED4C705B90000BE0D3
:1017D6007002A3E07002D2003000261228BBEF6030
:1017E60020AF0D122505C007AF0F12000EAB07C0C4
:1017F60003AF0F12000E8F13D003D005AF0E1220C9
:10180600AF90000CE024FFF090000BE034FFF0E016
:10181600B4FF14A3E0B4FF0FE50E24FFFEE434FF8B
:0718260090000BF0A3CEF0CF
:01182D002298
:0B28EB002001077F81122472D201221D
:10026100900036E0FF900034E02FFFE433FE900071
:1002710038E07C002FFFEC3EFE90003AE02FFFECCF
:100281003EFE90003CE02FFFEC3EFE90003EE02F52
:10029100FFEC3EFE900040E02FFFEC3EFE9000425E
:1002A100E02FF50EEC3EF50DC3E50E9401E50D943E
:1002B100005003020483900043E0FF120003EF703B
:1002C10003020483EFFD7C00900002E0FEA3E0FF47
:1002D100120B44ED4C600302048390000EE0FEA378
:0D02E100E0FF4E7002D20120010302045F15
:1002EE00E50E2FCFE50D3ECF24FFCF34FFFEAC0D34
:1002FE00AD0E120B448C0F8D10900040E0FF90005D
:10030E0042E02FFFE433FE90003EE07C002FFFEC36
:10031E003EFE90003CE02FFFEC3EFE90003AE02FB8
:10032E00FFEC3EFE900038E02FFFEC3EFE900036D4
:10033E00E02FFFEC3EFEC3E5109FE50F9E400690BA
:10034E00003302045A900040E0FF900042E02FFF7D
:10035E00E433FE90003EE07C002FFFEC3EFE90006A
:10036E003CE02FFFEC3EFE90003AE02FFFEC3EFE0D
:10037E00900038E02FFFEC3EFEC3E5109FE50F9E88
:10038E00400690003502045A900040E0FF90004273
:10039E00E02FFFE433FE90003EE07C002FFFEC3EAA
:1003AE00FE90003CE02FFFEC3EFE90003AE02FFF67
:1003BE00EC3EFEC3E5109FE50F9E4006900037020F
:1003CE00045A900040E0FF900042E02FFFE433FE1D
:1003DE0090003EE07C002FFFEC3EFE90003CE02FB4
:1003EE00FFEC3EFEC3E5109FE50F9E4005900039E1
:1003FE00805A900040E0FF900042E02FFFE433FE71
:10040E0090003EE07C002FFFEC3EFEC3E5109FE522
:10041E000F9E400590003B8033900040E0FF90001F
:10042E0042E02FFFE433FEC3E5109FE50F9E40052B
:10043E0090003D8017900042E0FFC3E5109FE50F4E
:10044E009400400590003F8003900041E0FF12278A
:01045E00F8A5
:10045F0090000FE024FFF090000EE034FFF0E0B4C6
:10046F00FF12A3E0B4FF0DE50E24FFF0E50D34FFFE
:04047F0090000EF0EB
:010483002256
:101B7F00900031E0F50DA3E0F50E122875EF6043EC
:101B8F00900071E0D394004004E014F022AF0D30C8
:101B9F0005161223DEC007AF0E121AD7AB07D005FA
:101BAF007FFF122336C20522122505C007AF0E1282
:101BBF001AD7AB07D0057FFF122336D205900071DD
:031BCF007402F0AD
:011BD20022F0
:10182E00900033E0F50DA3E0F50EA3E0F50F900068
:10183E0043E0FF120003EF606EEFFD7C00900002AC
:10184E00E0FEA3E0FF120B44ED4C705B90000EE047
:10185E007002A3E07002D2013001261228C7EF6099
:10186E0020AF0D122505C007AF0F12000EAB07C03B
:10187E0003AF0F12000E8F13D003D005AF0E122040
:10188E00F390000FE024FFF090000EE034FFF0E044
:10189E00B4FF14A3E0B4FF0FE50E24FFFEE434FF03
:0718AE0090000EF0A3CEF044
:0118B5002210
:0B28F6002002077F811224A3D20222DF
:1004840090004BE0FF900049E02FFFE433FE900022
:100494004DE07C002FFFEC3EFE90004FE02FFFEC80
:1004A4003EFE900051E02FFFEC3EFE900053E02F03
:1004B400FFEC3EFE900055E02FFFEC3EFE9000570F
:1004C400E02FF50EEC3EF50DC3E50E9401E50D9419
:1004D4000050030206A6900058E0FF120003EF70DC
:1004E400030206A6EFFD7C00900004E0FEA3E0FFFB
:1004F400120B44ED4C60030206A6900010E0FEA32C
:0D050400E0FF4E7002D202200203020682C8
:10051100E50E2FCFE50D3ECF24FFCF34FFFEAC0D0E
:10052100AD0E120B448C0F8D10900055E0FF900022
:1005310057E02FFFE433FE900053E07C002FFFECE7
:100541003EFE900051E02FFFEC3EFE90004FE02F69
:10055100FFEC3EFE90004DE02FFFEC3EFE90004B85
:10056100E02FFFEC3EFEC3E5109FE50F9E40069095
:10057100004802067D900055E0FF900057E02FFFF4
:10058100E433FE900053E07C002FFFEC3EFE900030
:1005910051E02FFFEC3EFE90004FE02FFFEC3EFEBE
:1005A10090004DE02FFFEC3EFEC3E5109FE50F9E4E
:1005B100400690004A02067D900055E0FF900057EA
:1005C100E02FFFE433FE900053E07C002FFFEC3E70
:1005D100FE900051E02FFFEC3EFE90004FE02FFF18
:1005E100EC3EFEC3E5109FE50F9E400690004C02D5
:1005F100067D900055E0FF900057E02FFFE433FEA9
:10060100900053E07C002FFFEC3EFE900051E02F64
:10061100FFEC3EFEC3E5109FE50F9E400590004EA6
:10062100805A900055E0FF900057E02FFFE433FE21
:10063100900053E07C002FFFEC3EFEC3E5109FE5E8
:100641000F9E40059000508033900055E0FF9000D0
:1006510057E02FFFE433FEC3E5109FE50F9E4005F1
:100661009000528017900057E0FFC3E5109FE50FFF
:10067100940040059000548003900056E0FF12283A
:010681001464
:10068200900011E024FFF0900010E034FFF0E0B49D
:10069200FF12A3E0B4FF0DE50E24FFF0E50D34FFD9
:0406A200900010F0C4
:0106A6002231
:101BD300900046E0F50DA3E0F50E122883EF604375
:101BE300900072E0D394004004E014F022AF0D3073
:101BF30006161223DEC007AF0E121AD7AB07D005A5
:101C03007FFF12236EC20622122505C007AF0E12F4
:101C13001AD7AB07D0057FFF12236ED2069000724E
:031C23007402F058
:011C2600229B
:1018B600900048E0F50DA3E0F50EA3E0F50F9000CB
:1018C60058E0FF120003EF606EEFFD7C009000040D
:1018D600E0FEA3E0FF120B44ED4C705B900010E0BD
:1018E6007002A3E07002D2023002261228D3EF6003
:1018F60020AF0D122505C007AF0F12000EAB07C0B3
:1019060003AF0F12000E8F13D003D005AF0E1221B6
:1019160037900011E024FFF0900010E034FFF0E073
:10192600B4FF14A3E0B4FF0FE50E24FFFEE434FF7A
:07193600900010F0A3CEF0B9
:01193D002287
:0B2901002003077F811224D4D20322A0
:1006A700900060E0FF90005EE02FFFE433FE9000D3
:1006B70062E07C002FFFEC3EFE900064E02FFFEC31
:1006C7003EFE900066E02FFFEC3EFE900068E02FB4
:1006D700FFEC3EFE90006AE02FFFEC3EFE90006CC0
:1006E700E02FF50EEC3EF50DC3E50E9401E50D94F4
:1006F7000050030208C990006DE0FF120003EF707D
:10070700030208C9EFFD7C00900006E0FEA3E0FFAE
:10071700120B44ED4C60030208C9900012E0FEA3DF
:0D072700E0FF4E7002D2032003030208A57C
:10073400E50E2FCFE50D3ECF24FFCF34FFFEAC0DE9
:10074400AD0E120B448C0F8D1090006AE0FF9000E8
:100754006CE02FFFE433FE900068E07C002FFFEC98
:100764003EFE900066E02FFFEC3EFE900064E02F1A
:10077400FFEC3EFE900062E02FFFEC3EFE90006036
:10078400E02FFFEC3EFEC3E5109FE50F9E40069070
:10079400005D0208A090006AE0FF90006CE02FFF6B
:1007A400E433FE900068E07C002FFFEC3EFE9000F6
:1007B40066E02FFFEC3EFE900064E02FFFEC3EFE6F
:1007C400900062E02FFFEC3EFEC3E5109FE50F9E14
:1007D400400690005F0208A090006AE0FF90006C61
:1007E400E02FFFE433FE900068E07C002FFFEC3E36
:1007F400FE900066E02FFFEC3EFE900064E02FFFC9
:10080400EC3EFEC3E5109FE50F9E4006900061029A
:1008140008A090006AE0FF90006CE02FFFE433FE34
:10082400900068E07C002FFFEC3EFE900066E02F15
:10083400FFEC3EFEC3E5109FE50F9E40059000636C
:10084400805A90006AE0FF90006CE02FFFE433FED2
:10085400900068E07C002FFFEC3EFEC3E5109FE5AE
:100864000F9E4005900065803390006AE0FF900081
:100874006CE02FFFE433FEC3E5109FE50F9E4005B7
:10088400900067801790006CE0FFC3E5109FE50FB0
:1008940094004005900069800390006BE0FF1228EB
:0108A4003023
:1008A500900013E024FFF0900012E034FFF0E0B474
:1008B500FF12A3E0B4FF0DE50E24FFF0E50D34FFB4
:0408C500900012F09D
:0108C900220C
:101C270090005BE0F50DA3E0F50E122891EF6043FD
:101C3700900073E0D394004004E014F022AF0D301D
:101C470007161223DEC007AF0E121AD7AB07D0054F
:101C57007FFF1223A6C20722122505C007AF0E1267
:101C67001AD7AB07D0057FFF1223A6D207900073C0
:031C77007402F004
:011C7A002247
:10193E0090005DE0F50DA3E0F50EA3E0F50F90002D
:10194E006DE0FF120003EF606EEFFD7C009000066D
:10195E00E0FEA3E0FF120B44ED4C705B900012E032
:10196E007002A3E07002D2033003261228DFEF606C
:10197E0020AF0D122505C007AF0F12000EAB07C02A
:10198E0003AF0F12000E8F13D003D005AF0E12212E
:10199E007B900013E024FFF0900012E034FFF0E0A3
:1019AE00B4FF14A3E0B4FF0FE50E24FFFEE434FFF2
:0719BE00900012F0A3CEF02F
:0119C50022FF
:1014DE00900018E024FE601214601714601C2403A0
:1014EE00702C12289F90001D801612003E90002F27
:1014FE00800E121B2B90001E80061217A690002144
:10150E00E0FEA3E0FFE48F0C8E0BF50AF509E4FF75
:10151E00FEFDFCAB0CAA0BA90AA809C3120C6A703B
:10152E0011900001E004F07006900000E004F07FDE
:10153E000022900000E0FEA3E0FFE4FCFDAB0CAA4D
:10154E000BA90AA809D3120C6A4011900001E004FD
:0E155E00F07006900000E004F07F00227F0194
:01156C00225C
:10156D00900019E024FE601214601714601C24030F
:10157D00702C1228EB9000328016120261900044FC
:10158D00800E121B7F900033800612182E900036AD
:10159D00E0FEA3E0FFE48F0C8E0BF50AF509E4FFE6
:1015AD00FEFDFCAB0CAA0BA90AA809C3120C6A70AC
:1015BD0011900003E004F07006900002E004F07F4B
:1015CD000022900002E0FEA3E0FFE4FCFDAB0CAABC
:1015DD000BA90AA809D3120C6A4011900003E0046C
:0E15ED00F07006900002E004F07F00227F0103
:0115FB0022CD
:1015FC0090001AE024FE601214601714601C24037F
:10160C00702C1228F6900047801612048490005912
:10161C00800E121BD390004880061218B690004B17
:10162C00E0FEA3E0FFE48F0C8E0BF50AF509E4FF56
:10163C00FEFDFCAB0CAA0BA90AA809C3120C6A701C
:10164C0011900005E004F07006900004E004F07FB7
:10165C000022900004E0FEA3E0FFE4FCFDAB0CAA2A
:10166C000BA90AA809D3120C6A4011900005E004DA
:0E167C00F07006900004E004F07F00227F0171
:01168A00223D
:10168B0090001BE024FE601214601714601C2403EE
:10169B00702C12290190005C80161206A790006E28
:1016AB00800E121C2790005D800612193E90006080
:1016BB00E0FEA3E0FFE48F0C8E0BF50AF509E4FFC7
:1016CB00FEFDFCAB0CAA0BA90AA809C3120C6A708D
:1016DB0011900007E004F07006900006E004F07F24
:1016EB000022900006E0FEA3E0FFE4FCFDAB0CAA99
:1016FB000BA90AA809D3120C6A4011900007E00449
:0E170B00F07006900006E004F07F00227F01DF
:0117190022AD
:1012CC007B017A017900121A81900014EFF07B01F6
:1012DC007A017920121A81900015EFF07B017A01C6
:1012EC007940121A81900016EFF07B017A01796037
:1012FC00121A81900017EFF0E4900008F0A3F0A30D
:10130C00F090000DF0750D01750E00750F1C7B0132
:10131C007A017900FD120C91900018EFF090000901
:10132C00E0FD750D01750E00750F317B017A0179A9
:10133C0020120C91900019EFF090000AE0FD750D51
:10134C0001750E00750F467B017A017940120C91E4
:10135C0090001AEFF090000DE0FD750D01750E0078
:10136C00750F5B7B017A017960120C9190001BEF79
:0D137C00F012253412255B1225820225A9EE
:1011D7001214DE8F08E5086034900008E004F090F0
:1011E7000014E0FF900008E0C39F4002E4F0900085
:1011F70008E0FD750D01750E00750F1C7B017A0166
:101207007900120C91900018EFF012253412156D29
:101217008F08E5086034900009E004F0900015E0BD
:10122700FF900009E0C39F4002E4F0900009E0FD51
:10123700750D01750E00750F317B017A017920124A
:101247000C91900019EFF012255B1215FC8F08E541
:1012570008603490000AE004F0900016E0FF900068
:101267000AE0C39F4002E4F090000AE0FD750D011B
:10127700750E00750F467B017A017940120C91902B
:10128700001AEFF012258212168B8F08E5086034DA
:1012970090000DE004F0900017E0FF90000DE0C310
:1012A7009F4002E4F090000DE0FD750D01750E0002
:1012B700750F5B7B017A017960120C9190001BEF2F
:0412C700F01225A953
:0112CB002200
:101E3F00121F9F121FE312202712206B121CC712B2
:101E4F0026601221BF121E87122681121D13122621
:101E5F00A2122200121ECD1226C3121D5F1226E4FB
:101E6F00122241121F13122705121DAB1227261221
:081E7F002282121F59022747BD
:0E22EF00011D00C189C108011F63021B000010
:10002600759890438920D29D758DFDD28ED2AF22D0
:0E28AD00438901D2AFD2A9D28CC2ABC28E2217
:030023000214398B
:0F143900C0E0C083C082C0D075D000C006C0071D
:10144800E5805403FF309902C29930987CC298AE67
:101458009930090AEE6F7071C209C29D806BE51D53
:10146800C39420500D7400251DF582E43401F583E2
:10147800EEF0E51DC394204013E51D9440500D7413
:1014880000251DF582E43401F583EEF0E51DC394D3
:10149800404013E51D9460500D7400251DF582E44D
:1014A8003401F583EEF0E51DC394604013E51D9407
:1014B80080500D7400251DF582E43401F583EEF0AB
:0914C800051DE51DB48002C2AC53
:0D14D100D007D006D0D0D082D083D0E0323A
:03000B0002290CBB
:09290C00758CFC758A66D2083254
:101A2A007580FF120026D2ACE51DC3948050177F43
:101A3A00811224417F851224727F901224A37F94FD
:101A4A001224D40080E27F801224417F8012247203
:101A5A007F801224A37F801224D41228AD1212CCC4
:101A6A003008FDC208051FE51FB464061211D7E449
:071A7A00F51F121E3F80E979
:0300000002171ACA
:0C171A00787FE4F6D8FD75816502176148
:100ACA00BB010689828A83E0225002E722BBFE022A
:090ADA00E32289828A83E493225D
:100AE300BB010CE58229F582E5833AF583E02250C8
:100AF30006E92582F8E622BBFE06E92582F8E22212
:0D0B0300E58229F582E5833AF583E493222B
:100B1000BB010689828A83F0225002F722BBFE01C4
:020B2000F322BE
:100B2200F8BB010DE58229F582E5833AF583E8F009
:100B3200225006E92582C8F622BBFE05E92582C8B5
:020B4200F2229D
:100B4400BC000BBE0029EF8DF084FFADF022E4CC95
:100B5400F875F008EF2FFFEE33FEEC33FCEE9DEC5E
:100B6400984005FCEE9DFE0FD5F0E9E4CEFD22EDA4
:100B7400F8F5F0EE8420D21CFEADF075F008EF2FEE
:100B8400FFED33FD4007985006D5F0F222C398FDDF
:050B94000FD5F0EA227C
:100B9900BB010789828A83020C7B500B09C5F027A8
:100BA900F7C5F01937F722BBFE0D09F8E325F0F375
:100BB900C5F019E338F322F889828A8374019325F1
:080BC900F0C5F0F8E4933822B6
:100BD100BB010DC58229C582C5833AC583020C7B41
:100BE1005011C58229F808E5F026F618F5F0E582DE
:100BF10036F622BBFE11C58229F808E225F0F5F090
:100C0100F218E23582F222F8E58229F582E5832A9B
:0D0C1100F58374019325F0F5F0E49338228B
:100C1E00BB010A89828A83F0E5F0A3F0225006F721
:0F0C2E0009A7F01922BBFE06F3E5F009F319221E
:100C3D00F8BB0111E58229F582E5833AF583E8F0E9
:100C4D00E5F0A3F0225009E92582C8F608A6F022A6
:0D0C5D00BBFE09E92582C8F2E5F008F2228D
:100C6A00EB9FF5F0EA9E42F0E99D42F0E89C45F0E0
:010C7A002257
:10172600021A2AE493A3F8E493A34003F68001F295
:1017360008DFF48029E493A3F85407240CC8C333C4
:10174600C4540F4420C8834004F456800146F6DF93
:10175600E4800B01020408102040809022C3E47E3E
:10176600019360BCA3FF543F30E509541FFEE49388
:10177600A360010ECF54C025E060A840B8E493A34F
:10178600FAE493A3F8E493A3C8C582C8CAC583CA7A
:10179600F0A3C8C582C8CAC583CADFE9DEE780BE32
:0122FD0000E0
:100C7B00C5F0F8A3E028F0C5F0F8E5821582700204
:060C8B001583E038F022A1
:00000001FF
